{
  "_format": "hh-sol-artifact-1",
  "contractName": "MusicHole",
  "sourceName": "contracts/MusicHole.sol",
  "abi": [
    {
      "inputs": [
        {
          "internalType": "string",
          "name": "_name",
          "type": "string"
        },
        {
          "internalType": "string",
          "name": "_symbol",
          "type": "string"
        },
        {
          "internalType": "string",
          "name": "_uri",
          "type": "string"
        },
        {
          "internalType": "uint256",
          "name": "_royalties",
          "type": "uint256"
        },
        {
          "internalType": "uint256",
          "name": "_price",
          "type": "uint256"
        },
        {
          "internalType": "uint256",
          "name": "_max",
          "type": "uint256"
        }
      ],
      "stateMutability": "nonpayable",
      "type": "constructor"
    },
    {
      "anonymous": false,
      "inputs": [
        {
          "indexed": true,
          "internalType": "address",
          "name": "owner",
          "type": "address"
        },
        {
          "indexed": true,
          "internalType": "address",
          "name": "approved",
          "type": "address"
        },
        {
          "indexed": true,
          "internalType": "uint256",
          "name": "tokenId",
          "type": "uint256"
        }
      ],
      "name": "Approval",
      "type": "event"
    },
    {
      "anonymous": false,
      "inputs": [
        {
          "indexed": true,
          "internalType": "address",
          "name": "owner",
          "type": "address"
        },
        {
          "indexed": true,
          "internalType": "address",
          "name": "operator",
          "type": "address"
        },
        {
          "indexed": false,
          "internalType": "bool",
          "name": "approved",
          "type": "bool"
        }
      ],
      "name": "ApprovalForAll",
      "type": "event"
    },
    {
      "anonymous": false,
      "inputs": [
        {
          "indexed": true,
          "internalType": "address",
          "name": "previousOwner",
          "type": "address"
        },
        {
          "indexed": true,
          "internalType": "address",
          "name": "newOwner",
          "type": "address"
        }
      ],
      "name": "OwnershipTransferred",
      "type": "event"
    },
    {
      "anonymous": false,
      "inputs": [
        {
          "indexed": true,
          "internalType": "address",
          "name": "from",
          "type": "address"
        },
        {
          "indexed": true,
          "internalType": "address",
          "name": "to",
          "type": "address"
        },
        {
          "indexed": true,
          "internalType": "uint256",
          "name": "tokenId",
          "type": "uint256"
        }
      ],
      "name": "Transfer",
      "type": "event"
    },
    {
      "stateMutability": "payable",
      "type": "fallback"
    },
    {
      "inputs": [
        {
          "internalType": "uint256",
          "name": "_amount",
          "type": "uint256"
        }
      ],
      "name": "adminMint",
      "outputs": [],
      "stateMutability": "nonpayable",
      "type": "function"
    },
    {
      "inputs": [
        {
          "internalType": "address",
          "name": "to",
          "type": "address"
        },
        {
          "internalType": "uint256",
          "name": "tokenId",
          "type": "uint256"
        }
      ],
      "name": "approve",
      "outputs": [],
      "stateMutability": "nonpayable",
      "type": "function"
    },
    {
      "inputs": [
        {
          "internalType": "address",
          "name": "owner",
          "type": "address"
        }
      ],
      "name": "balanceOf",
      "outputs": [
        {
          "internalType": "uint256",
          "name": "",
          "type": "uint256"
        }
      ],
      "stateMutability": "view",
      "type": "function"
    },
    {
      "inputs": [
        {
          "internalType": "uint256",
          "name": "tokenId",
          "type": "uint256"
        }
      ],
      "name": "burn",
      "outputs": [],
      "stateMutability": "nonpayable",
      "type": "function"
    },
    {
      "inputs": [
        {
          "internalType": "uint256",
          "name": "tokenId",
          "type": "uint256"
        }
      ],
      "name": "getApproved",
      "outputs": [
        {
          "internalType": "address",
          "name": "",
          "type": "address"
        }
      ],
      "stateMutability": "view",
      "type": "function"
    },
    {
      "inputs": [
        {
          "internalType": "address",
          "name": "owner",
          "type": "address"
        },
        {
          "internalType": "address",
          "name": "operator",
          "type": "address"
        }
      ],
      "name": "isApprovedForAll",
      "outputs": [
        {
          "internalType": "bool",
          "name": "",
          "type": "bool"
        }
      ],
      "stateMutability": "view",
      "type": "function"
    },
    {
      "inputs": [],
      "name": "max",
      "outputs": [
        {
          "internalType": "uint256",
          "name": "",
          "type": "uint256"
        }
      ],
      "stateMutability": "view",
      "type": "function"
    },
    {
      "inputs": [],
      "name": "mint",
      "outputs": [],
      "stateMutability": "payable",
      "type": "function"
    },
    {
      "inputs": [],
      "name": "name",
      "outputs": [
        {
          "internalType": "string",
          "name": "",
          "type": "string"
        }
      ],
      "stateMutability": "view",
      "type": "function"
    },
    {
      "inputs": [],
      "name": "owner",
      "outputs": [
        {
          "internalType": "address",
          "name": "",
          "type": "address"
        }
      ],
      "stateMutability": "view",
      "type": "function"
    },
    {
      "inputs": [
        {
          "internalType": "uint256",
          "name": "tokenId",
          "type": "uint256"
        }
      ],
      "name": "ownerOf",
      "outputs": [
        {
          "internalType": "address",
          "name": "",
          "type": "address"
        }
      ],
      "stateMutability": "view",
      "type": "function"
    },
    {
      "inputs": [],
      "name": "price",
      "outputs": [
        {
          "internalType": "uint256",
          "name": "",
          "type": "uint256"
        }
      ],
      "stateMutability": "view",
      "type": "function"
    },
    {
      "inputs": [],
      "name": "renounceOwnership",
      "outputs": [],
      "stateMutability": "nonpayable",
      "type": "function"
    },
    {
      "inputs": [
        {
          "internalType": "uint256",
          "name": "",
          "type": "uint256"
        },
        {
          "internalType": "uint256",
          "name": "value",
          "type": "uint256"
        }
      ],
      "name": "royaltyInfo",
      "outputs": [
        {
          "internalType": "address",
          "name": "receiver",
          "type": "address"
        },
        {
          "internalType": "uint256",
          "name": "royaltyAmount",
          "type": "uint256"
        }
      ],
      "stateMutability": "view",
      "type": "function"
    },
    {
      "inputs": [
        {
          "internalType": "address",
          "name": "from",
          "type": "address"
        },
        {
          "internalType": "address",
          "name": "to",
          "type": "address"
        },
        {
          "internalType": "uint256",
          "name": "tokenId",
          "type": "uint256"
        }
      ],
      "name": "safeTransferFrom",
      "outputs": [],
      "stateMutability": "nonpayable",
      "type": "function"
    },
    {
      "inputs": [
        {
          "internalType": "address",
          "name": "from",
          "type": "address"
        },
        {
          "internalType": "address",
          "name": "to",
          "type": "address"
        },
        {
          "internalType": "uint256",
          "name": "tokenId",
          "type": "uint256"
        },
        {
          "internalType": "bytes",
          "name": "data",
          "type": "bytes"
        }
      ],
      "name": "safeTransferFrom",
      "outputs": [],
      "stateMutability": "nonpayable",
      "type": "function"
    },
    {
      "inputs": [
        {
          "internalType": "address",
          "name": "operator",
          "type": "address"
        },
        {
          "internalType": "bool",
          "name": "approved",
          "type": "bool"
        }
      ],
      "name": "setApprovalForAll",
      "outputs": [],
      "stateMutability": "nonpayable",
      "type": "function"
    },
    {
      "inputs": [
        {
          "internalType": "uint256",
          "name": "_price",
          "type": "uint256"
        }
      ],
      "name": "setPrice",
      "outputs": [],
      "stateMutability": "payable",
      "type": "function"
    },
    {
      "inputs": [
        {
          "internalType": "bytes4",
          "name": "interfaceId",
          "type": "bytes4"
        }
      ],
      "name": "supportsInterface",
      "outputs": [
        {
          "internalType": "bool",
          "name": "",
          "type": "bool"
        }
      ],
      "stateMutability": "view",
      "type": "function"
    },
    {
      "inputs": [],
      "name": "symbol",
      "outputs": [
        {
          "internalType": "string",
          "name": "",
          "type": "string"
        }
      ],
      "stateMutability": "view",
      "type": "function"
    },
    {
      "inputs": [
        {
          "internalType": "uint256",
          "name": "tokenId",
          "type": "uint256"
        }
      ],
      "name": "tokenURI",
      "outputs": [
        {
          "internalType": "string",
          "name": "",
          "type": "string"
        }
      ],
      "stateMutability": "view",
      "type": "function"
    },
    {
      "inputs": [],
      "name": "totalSupply",
      "outputs": [
        {
          "internalType": "uint256",
          "name": "",
          "type": "uint256"
        }
      ],
      "stateMutability": "view",
      "type": "function"
    },
    {
      "inputs": [
        {
          "internalType": "address",
          "name": "from",
          "type": "address"
        },
        {
          "internalType": "address",
          "name": "to",
          "type": "address"
        },
        {
          "internalType": "uint256",
          "name": "tokenId",
          "type": "uint256"
        }
      ],
      "name": "transferFrom",
      "outputs": [],
      "stateMutability": "nonpayable",
      "type": "function"
    },
    {
      "inputs": [
        {
          "internalType": "address",
          "name": "newOwner",
          "type": "address"
        }
      ],
      "name": "transferOwnership",
      "outputs": [],
      "stateMutability": "nonpayable",
      "type": "function"
    },
    {
      "inputs": [],
      "name": "uri",
      "outputs": [
        {
          "internalType": "string",
          "name": "",
          "type": "string"
        }
      ],
      "stateMutability": "view",
      "type": "function"
    },
    {
      "stateMutability": "payable",
      "type": "receive"
    }
  ],
  "bytecode": "0x60806040523480156200001157600080fd5b5060405162004596380380620045968339818101604052810190620000379190620004ed565b858581600090816200004a919062000827565b5080600190816200005c919062000827565b5050506200007f62000073620000de60201b60201c565b620000e660201b60201c565b6001600a8190555083600e908162000098919062000827565b50620000ba620000ad620001ac60201b60201c565b84620001d660201b60201c565b620000cb826200026a60201b60201c565b80600d8190555050505050505062000a03565b600033905090565b6000600760009054906101000a900473ffffffffffffffffffffffffffffffffffffffff16905081600760006101000a81548173ffffffffffffffffffffffffffffffffffffffff021916908373ffffffffffffffffffffffffffffffffffffffff1602179055508173ffffffffffffffffffffffffffffffffffffffff168173ffffffffffffffffffffffffffffffffffffffff167f8be0079c531659141344cd1fd0a4f28419497f9722a3daafe3b4186f6b6457e060405160405180910390a35050565b6000600760009054906101000a900473ffffffffffffffffffffffffffffffffffffffff16905090565b6127108111156200021e576040517f08c379a000000000000000000000000000000000000000000000000000000000815260040162000215906200096f565b60405180910390fd5b81600860006101000a81548173ffffffffffffffffffffffffffffffffffffffff021916908373ffffffffffffffffffffffffffffffffffffffff160217905550806009819055505050565b6200027a6200028460201b60201c565b80600c8190555050565b62000294620000de60201b60201c565b73ffffffffffffffffffffffffffffffffffffffff16620002ba620001ac60201b60201c565b73ffffffffffffffffffffffffffffffffffffffff161462000313576040517f08c379a00000000000000000000000000000000000000000000000000000000081526004016200030a90620009e1565b60405180910390fd5b565b6000604051905090565b600080fd5b600080fd5b600080fd5b600080fd5b6000601f19601f8301169050919050565b7f4e487b7100000000000000000000000000000000000000000000000000000000600052604160045260246000fd5b6200037e8262000333565b810181811067ffffffffffffffff82111715620003a0576200039f62000344565b5b80604052505050565b6000620003b562000315565b9050620003c3828262000373565b919050565b600067ffffffffffffffff821115620003e657620003e562000344565b5b620003f18262000333565b9050602081019050919050565b60005b838110156200041e57808201518184015260208101905062000401565b838111156200042e576000848401525b50505050565b60006200044b6200044584620003c8565b620003a9565b9050828152602081018484840111156200046a57620004696200032e565b5b62000477848285620003fe565b509392505050565b600082601f83011262000497576200049662000329565b5b8151620004a984826020860162000434565b91505092915050565b6000819050919050565b620004c781620004b2565b8114620004d357600080fd5b50565b600081519050620004e781620004bc565b92915050565b60008060008060008060c087890312156200050d576200050c6200031f565b5b600087015167ffffffffffffffff8111156200052e576200052d62000324565b5b6200053c89828a016200047f565b965050602087015167ffffffffffffffff81111562000560576200055f62000324565b5b6200056e89828a016200047f565b955050604087015167ffffffffffffffff81111562000592576200059162000324565b5b620005a089828a016200047f565b9450506060620005b389828a01620004d6565b9350506080620005c689828a01620004d6565b92505060a0620005d989828a01620004d6565b9150509295509295509295565b600081519050919050565b7f4e487b7100000000000000000000000000000000000000000000000000000000600052602260045260246000fd5b600060028204905060018216806200063957607f821691505b6020821081036200064f576200064e620005f1565b5b50919050565b60008190508160005260206000209050919050565b60006020601f8301049050919050565b600082821b905092915050565b600060088302620006b97fffffffffffffffffffffffffffffffffffffffffffffffffffffffffffffffff826200067a565b620006c586836200067a565b95508019841693508086168417925050509392505050565b6000819050919050565b60006200070862000702620006fc84620004b2565b620006dd565b620004b2565b9050919050565b6000819050919050565b6200072483620006e7565b6200073c62000733826200070f565b84845462000687565b825550505050565b600090565b6200075362000744565b6200076081848462000719565b505050565b5b8181101562000788576200077c60008262000749565b60018101905062000766565b5050565b601f821115620007d757620007a18162000655565b620007ac846200066a565b81016020851015620007bc578190505b620007d4620007cb856200066a565b83018262000765565b50505b505050565b600082821c905092915050565b6000620007fc60001984600802620007dc565b1980831691505092915050565b6000620008178383620007e9565b9150826002028217905092915050565b6200083282620005e6565b67ffffffffffffffff8111156200084e576200084d62000344565b5b6200085a825462000620565b620008678282856200078c565b600060209050601f8311600181146200089f57600084156200088a578287015190505b62000896858262000809565b86555062000906565b601f198416620008af8662000655565b60005b82811015620008d957848901518255600182019150602085019450602081019050620008b2565b86831015620008f95784890151620008f5601f891682620007e9565b8355505b6001600288020188555050505b505050505050565b600082825260208201905092915050565b7f45524332393831526f79616c746965733a20546f6f2068696768000000000000600082015250565b600062000957601a836200090e565b915062000964826200091f565b602082019050919050565b600060208201905081810360008301526200098a8162000948565b9050919050565b7f4f776e61626c653a2063616c6c6572206973206e6f7420746865206f776e6572600082015250565b6000620009c96020836200090e565b9150620009d68262000991565b602082019050919050565b60006020820190508181036000830152620009fc81620009ba565b9050919050565b613b838062000a136000396000f3fe60806040526004361061016a5760003560e01c806370a08231116100d1578063a22cb4651161008a578063c87b56dd11610064578063c87b56dd14610585578063e985e9c5146105c2578063eac989f8146105ff578063f2fde38b1461062a576101b2565b8063a22cb4651461050a578063b88d4fde14610533578063c1f261231461055c576101b2565b806370a0823114610419578063715018a6146104565780638da5cb5b1461046d57806391b7f5ed1461049857806395d89b41146104b4578063a035b1fe146104df576101b2565b806323b872dd1161012357806323b872dd146102f85780632a55205a1461032157806342842e0e1461035f57806342966c68146103885780636352211e146103b15780636ac5db19146103ee576101b2565b806301ffc9a7146101f557806306fdde0314610232578063081812fc1461025d578063095ea7b31461029a5780631249c58b146102c357806318160ddd146102cd576101b2565b366101b25760006101b0576040517f08c379a00000000000000000000000000000000000000000000000000000000081526004016101a7906124c4565b60405180910390fd5b005b60006101f3576040517f08c379a00000000000000000000000000000000000000000000000000000000081526004016101ea90612530565b60405180910390fd5b005b34801561020157600080fd5b5061021c600480360381019061021791906125bc565b610653565b6040516102299190612604565b60405180910390f35b34801561023e57600080fd5b50610247610665565b60405161025491906126a7565b60405180910390f35b34801561026957600080fd5b50610284600480360381019061027f91906126ff565b6106f7565b604051610291919061276d565b60405180910390f35b3480156102a657600080fd5b506102c160048036038101906102bc91906127b4565b61073d565b005b6102cb610854565b005b3480156102d957600080fd5b506102e2610a44565b6040516102ef9190612803565b60405180910390f35b34801561030457600080fd5b5061031f600480360381019061031a919061281e565b610a55565b005b34801561032d57600080fd5b5061034860048036038101906103439190612871565b610ab5565b6040516103569291906128b1565b60405180910390f35b34801561036b57600080fd5b506103866004803603810190610381919061281e565b610b01565b005b34801561039457600080fd5b506103af60048036038101906103aa91906126ff565b610b21565b005b3480156103bd57600080fd5b506103d860048036038101906103d391906126ff565b610beb565b6040516103e5919061276d565b60405180910390f35b3480156103fa57600080fd5b50610403610c9c565b6040516104109190612803565b60405180910390f35b34801561042557600080fd5b50610440600480360381019061043b91906128da565b610ca2565b60405161044d9190612803565b60405180910390f35b34801561046257600080fd5b5061046b610d59565b005b34801561047957600080fd5b50610482610d6d565b60405161048f919061276d565b60405180910390f35b6104b260048036038101906104ad91906126ff565b610d97565b005b3480156104c057600080fd5b506104c9610da9565b6040516104d691906126a7565b60405180910390f35b3480156104eb57600080fd5b506104f4610e3b565b6040516105019190612803565b60405180910390f35b34801561051657600080fd5b50610531600480360381019061052c9190612933565b610e41565b005b34801561053f57600080fd5b5061055a60048036038101906105559190612aa8565b610e57565b005b34801561056857600080fd5b50610583600480360381019061057e91906126ff565b610eb9565b005b34801561059157600080fd5b506105ac60048036038101906105a791906126ff565b610fea565b6040516105b991906126a7565b60405180910390f35b3480156105ce57600080fd5b506105e960048036038101906105e49190612b2b565b610ffc565b6040516105f69190612604565b60405180910390f35b34801561060b57600080fd5b50610614611090565b60405161062191906126a7565b60405180910390f35b34801561063657600080fd5b50610651600480360381019061064c91906128da565b61111e565b005b600061065e826111a1565b9050919050565b60606000805461067490612b9a565b80601f01602080910402602001604051908101604052809291908181526020018280546106a090612b9a565b80156106ed5780601f106106c2576101008083540402835291602001916106ed565b820191906000526020600020905b8154815290600101906020018083116106d057829003601f168201915b5050505050905090565b60006107028261121b565b6004600083815260200190815260200160002060009054906101000a900473ffffffffffffffffffffffffffffffffffffffff169050919050565b600061074882610beb565b90508073ffffffffffffffffffffffffffffffffffffffff168373ffffffffffffffffffffffffffffffffffffffff16036107b8576040517f08c379a00000000000000000000000000000000000000000000000000000000081526004016107af90612c3d565b60405180910390fd5b8073ffffffffffffffffffffffffffffffffffffffff166107d7611266565b73ffffffffffffffffffffffffffffffffffffffff161480610806575061080581610800611266565b610ffc565b5b610845576040517f08c379a000000000000000000000000000000000000000000000000000000000815260040161083c90612ccf565b60405180910390fd5b61084f838361126e565b505050565b6002600a5403610899576040517f08c379a000000000000000000000000000000000000000000000000000000000815260040161089090612d3b565b60405180910390fd5b6002600a81905550600c5434146108e5576040517f08c379a00000000000000000000000000000000000000000000000000000000081526004016108dc90612da7565b60405180910390fd5b600d546108f2600b611327565b10610932576040517f08c379a000000000000000000000000000000000000000000000000000000000815260040161092990612e13565b60405180910390fd5b61093c600b611335565b61094f3361094a600b611327565b61134b565b6109ec61095c600b611327565b600e805461096990612b9a565b80601f016020809104026020016040519081016040528092919081815260200182805461099590612b9a565b80156109e25780601f106109b7576101008083540402835291602001916109e2565b820191906000526020600020905b8154815290600101906020018083116109c557829003601f168201915b5050505050611369565b6109f4610d6d565b73ffffffffffffffffffffffffffffffffffffffff166108fc349081150290604051600060405180830381858888f19350505050158015610a39573d6000803e3d6000fd5b506001600a81905550565b6000610a50600b611327565b905090565b610a66610a60611266565b826113d6565b610aa5576040517f08c379a0000000000000000000000000000000000000000000000000000000008152600401610a9c90612ea5565b60405180910390fd5b610ab083838361146b565b505050565b600080600860009054906101000a900473ffffffffffffffffffffffffffffffffffffffff1661271060095485610aec9190612ef4565b610af69190612f7d565b915091509250929050565b610b1c83838360405180602001604052806000815250610e57565b505050565b610b2a816116d1565b610b69576040517f08c379a0000000000000000000000000000000000000000000000000000000008152600401610b6090613020565b60405180910390fd5b3373ffffffffffffffffffffffffffffffffffffffff16610b8982610beb565b73ffffffffffffffffffffffffffffffffffffffff1614610bdf576040517f08c379a0000000000000000000000000000000000000000000000000000000008152600401610bd6906130b2565b60405180910390fd5b610be88161173d565b50565b6000806002600084815260200190815260200160002060009054906101000a900473ffffffffffffffffffffffffffffffffffffffff169050600073ffffffffffffffffffffffffffffffffffffffff168173ffffffffffffffffffffffffffffffffffffffff1603610c93576040517f08c379a0000000000000000000000000000000000000000000000000000000008152600401610c8a9061311e565b60405180910390fd5b80915050919050565b600d5481565b60008073ffffffffffffffffffffffffffffffffffffffff168273ffffffffffffffffffffffffffffffffffffffff1603610d12576040517f08c379a0000000000000000000000000000000000000000000000000000000008152600401610d09906131b0565b60405180910390fd5b600360008373ffffffffffffffffffffffffffffffffffffffff1673ffffffffffffffffffffffffffffffffffffffff168152602001908152602001600020549050919050565b610d61611749565b610d6b60006117c7565b565b6000600760009054906101000a900473ffffffffffffffffffffffffffffffffffffffff16905090565b610d9f611749565b80600c8190555050565b606060018054610db890612b9a565b80601f0160208091040260200160405190810160405280929190818152602001828054610de490612b9a565b8015610e315780601f10610e0657610100808354040283529160200191610e31565b820191906000526020600020905b815481529060010190602001808311610e1457829003601f168201915b5050505050905090565b600c5481565b610e53610e4c611266565b838361188d565b5050565b610e68610e62611266565b836113d6565b610ea7576040517f08c379a0000000000000000000000000000000000000000000000000000000008152600401610e9e90612ea5565b60405180910390fd5b610eb3848484846119f9565b50505050565b610ec1611749565b60005b81811015610fe657600d54610ed9600b611327565b10610f19576040517f08c379a0000000000000000000000000000000000000000000000000000000008152600401610f1090612e13565b60405180910390fd5b610f23600b611335565b610f3633610f31600b611327565b61134b565b610fd3610f43600b611327565b600e8054610f5090612b9a565b80601f0160208091040260200160405190810160405280929190818152602001828054610f7c90612b9a565b8015610fc95780601f10610f9e57610100808354040283529160200191610fc9565b820191906000526020600020905b815481529060010190602001808311610fac57829003601f168201915b5050505050611369565b8080610fde906131d0565b915050610ec4565b5050565b6060610ff582611a55565b9050919050565b6000600560008473ffffffffffffffffffffffffffffffffffffffff1673ffffffffffffffffffffffffffffffffffffffff16815260200190815260200160002060008373ffffffffffffffffffffffffffffffffffffffff1673ffffffffffffffffffffffffffffffffffffffff16815260200190815260200160002060009054906101000a900460ff16905092915050565b600e805461109d90612b9a565b80601f01602080910402602001604051908101604052809291908181526020018280546110c990612b9a565b80156111165780601f106110eb57610100808354040283529160200191611116565b820191906000526020600020905b8154815290600101906020018083116110f957829003601f168201915b505050505081565b611126611749565b600073ffffffffffffffffffffffffffffffffffffffff168173ffffffffffffffffffffffffffffffffffffffff1603611195576040517f08c379a000000000000000000000000000000000000000000000000000000000815260040161118c9061328a565b60405180910390fd5b61119e816117c7565b50565b60007f2a55205a000000000000000000000000000000000000000000000000000000007bffffffffffffffffffffffffffffffffffffffffffffffffffffffff1916827bffffffffffffffffffffffffffffffffffffffffffffffffffffffff19161480611214575061121382611b67565b5b9050919050565b611224816116d1565b611263576040517f08c379a000000000000000000000000000000000000000000000000000000000815260040161125a9061311e565b60405180910390fd5b50565b600033905090565b816004600083815260200190815260200160002060006101000a81548173ffffffffffffffffffffffffffffffffffffffff021916908373ffffffffffffffffffffffffffffffffffffffff160217905550808273ffffffffffffffffffffffffffffffffffffffff166112e183610beb565b73ffffffffffffffffffffffffffffffffffffffff167f8c5be1e5ebec7d5bd14f71427d1e84f3dd0314c0f7b2291e5b200ac8c7c3b92560405160405180910390a45050565b600081600001549050919050565b6001816000016000828254019250508190555050565b611365828260405180602001604052806000815250611c49565b5050565b611372826116d1565b6113b1576040517f08c379a00000000000000000000000000000000000000000000000000000000081526004016113a89061331c565b60405180910390fd5b806006600084815260200190815260200160002090816113d191906134e8565b505050565b6000806113e283610beb565b90508073ffffffffffffffffffffffffffffffffffffffff168473ffffffffffffffffffffffffffffffffffffffff16148061142457506114238185610ffc565b5b8061146257508373ffffffffffffffffffffffffffffffffffffffff1661144a846106f7565b73ffffffffffffffffffffffffffffffffffffffff16145b91505092915050565b8273ffffffffffffffffffffffffffffffffffffffff1661148b82610beb565b73ffffffffffffffffffffffffffffffffffffffff16146114e1576040517f08c379a00000000000000000000000000000000000000000000000000000000081526004016114d89061362c565b60405180910390fd5b600073ffffffffffffffffffffffffffffffffffffffff168273ffffffffffffffffffffffffffffffffffffffff1603611550576040517f08c379a0000000000000000000000000000000000000000000000000000000008152600401611547906136be565b60405180910390fd5b61155b838383611ca4565b61156660008261126e565b6001600360008573ffffffffffffffffffffffffffffffffffffffff1673ffffffffffffffffffffffffffffffffffffffff16815260200190815260200160002060008282546115b691906136de565b925050819055506001600360008473ffffffffffffffffffffffffffffffffffffffff1673ffffffffffffffffffffffffffffffffffffffff168152602001908152602001600020600082825461160d9190613712565b92505081905550816002600083815260200190815260200160002060006101000a81548173ffffffffffffffffffffffffffffffffffffffff021916908373ffffffffffffffffffffffffffffffffffffffff160217905550808273ffffffffffffffffffffffffffffffffffffffff168473ffffffffffffffffffffffffffffffffffffffff167fddf252ad1be2c89b69c2b068fc378daa952ba7f163c4a11628f55a4df523b3ef60405160405180910390a46116cc838383611cb4565b505050565b60008073ffffffffffffffffffffffffffffffffffffffff166002600084815260200190815260200160002060009054906101000a900473ffffffffffffffffffffffffffffffffffffffff1673ffffffffffffffffffffffffffffffffffffffff1614159050919050565b61174681611cc4565b50565b611751611266565b73ffffffffffffffffffffffffffffffffffffffff1661176f610d6d565b73ffffffffffffffffffffffffffffffffffffffff16146117c5576040517f08c379a00000000000000000000000000000000000000000000000000000000081526004016117bc906137b4565b60405180910390fd5b565b6000600760009054906101000a900473ffffffffffffffffffffffffffffffffffffffff16905081600760006101000a81548173ffffffffffffffffffffffffffffffffffffffff021916908373ffffffffffffffffffffffffffffffffffffffff1602179055508173ffffffffffffffffffffffffffffffffffffffff168173ffffffffffffffffffffffffffffffffffffffff167f8be0079c531659141344cd1fd0a4f28419497f9722a3daafe3b4186f6b6457e060405160405180910390a35050565b8173ffffffffffffffffffffffffffffffffffffffff168373ffffffffffffffffffffffffffffffffffffffff16036118fb576040517f08c379a00000000000000000000000000000000000000000000000000000000081526004016118f290613820565b60405180910390fd5b80600560008573ffffffffffffffffffffffffffffffffffffffff1673ffffffffffffffffffffffffffffffffffffffff16815260200190815260200160002060008473ffffffffffffffffffffffffffffffffffffffff1673ffffffffffffffffffffffffffffffffffffffff16815260200190815260200160002060006101000a81548160ff0219169083151502179055508173ffffffffffffffffffffffffffffffffffffffff168373ffffffffffffffffffffffffffffffffffffffff167f17307eab39ab6107e8899845ad3d59bd9653f200f220920489ca2b5937696c31836040516119ec9190612604565b60405180910390a3505050565b611a0484848461146b565b611a1084848484611d17565b611a4f576040517f08c379a0000000000000000000000000000000000000000000000000000000008152600401611a46906138b2565b60405180910390fd5b50505050565b6060611a608261121b565b6000600660008481526020019081526020016000208054611a8090612b9a565b80601f0160208091040260200160405190810160405280929190818152602001828054611aac90612b9a565b8015611af95780601f10611ace57610100808354040283529160200191611af9565b820191906000526020600020905b815481529060010190602001808311611adc57829003601f168201915b505050505090506000611b0a611e9e565b90506000815103611b1f578192505050611b62565b600082511115611b54578082604051602001611b3c92919061390e565b60405160208183030381529060405292505050611b62565b611b5d84611eb5565b925050505b919050565b60007f80ac58cd000000000000000000000000000000000000000000000000000000007bffffffffffffffffffffffffffffffffffffffffffffffffffffffff1916827bffffffffffffffffffffffffffffffffffffffffffffffffffffffff19161480611c3257507f5b5e139f000000000000000000000000000000000000000000000000000000007bffffffffffffffffffffffffffffffffffffffffffffffffffffffff1916827bffffffffffffffffffffffffffffffffffffffffffffffffffffffff1916145b80611c425750611c4182611f1d565b5b9050919050565b611c538383611f87565b611c606000848484611d17565b611c9f576040517f08c379a0000000000000000000000000000000000000000000000000000000008152600401611c96906138b2565b60405180910390fd5b505050565b611caf838383612160565b505050565b611cbf838383612165565b505050565b611ccd8161216a565b6000600660008381526020019081526020016000208054611ced90612b9a565b905014611d1457600660008281526020019081526020016000206000611d13919061240a565b5b50565b6000611d388473ffffffffffffffffffffffffffffffffffffffff16612287565b15611e91578373ffffffffffffffffffffffffffffffffffffffff1663150b7a02611d61611266565b8786866040518563ffffffff1660e01b8152600401611d839493929190613987565b6020604051808303816000875af1925050508015611dbf57506040513d601f19601f82011682018060405250810190611dbc91906139e8565b60015b611e41573d8060008114611def576040519150601f19603f3d011682016040523d82523d6000602084013e611df4565b606091505b506000815103611e39576040517f08c379a0000000000000000000000000000000000000000000000000000000008152600401611e30906138b2565b60405180910390fd5b805181602001fd5b63150b7a0260e01b7bffffffffffffffffffffffffffffffffffffffffffffffffffffffff1916817bffffffffffffffffffffffffffffffffffffffffffffffffffffffff191614915050611e96565b600190505b949350505050565b606060405180602001604052806000815250905090565b6060611ec08261121b565b6000611eca611e9e565b90506000815111611eea5760405180602001604052806000815250611f15565b80611ef4846122aa565b604051602001611f0592919061390e565b6040516020818303038152906040525b915050919050565b60007f01ffc9a7000000000000000000000000000000000000000000000000000000007bffffffffffffffffffffffffffffffffffffffffffffffffffffffff1916827bffffffffffffffffffffffffffffffffffffffffffffffffffffffff1916149050919050565b600073ffffffffffffffffffffffffffffffffffffffff168273ffffffffffffffffffffffffffffffffffffffff1603611ff6576040517f08c379a0000000000000000000000000000000000000000000000000000000008152600401611fed90613a61565b60405180910390fd5b611fff816116d1565b1561203f576040517f08c379a000000000000000000000000000000000000000000000000000000000815260040161203690613acd565b60405180910390fd5b61204b60008383611ca4565b6001600360008473ffffffffffffffffffffffffffffffffffffffff1673ffffffffffffffffffffffffffffffffffffffff168152602001908152602001600020600082825461209b9190613712565b92505081905550816002600083815260200190815260200160002060006101000a81548173ffffffffffffffffffffffffffffffffffffffff021916908373ffffffffffffffffffffffffffffffffffffffff160217905550808273ffffffffffffffffffffffffffffffffffffffff16600073ffffffffffffffffffffffffffffffffffffffff167fddf252ad1be2c89b69c2b068fc378daa952ba7f163c4a11628f55a4df523b3ef60405160405180910390a461215c60008383611cb4565b5050565b505050565b505050565b600061217582610beb565b905061218381600084611ca4565b61218e60008361126e565b6001600360008373ffffffffffffffffffffffffffffffffffffffff1673ffffffffffffffffffffffffffffffffffffffff16815260200190815260200160002060008282546121de91906136de565b925050819055506002600083815260200190815260200160002060006101000a81549073ffffffffffffffffffffffffffffffffffffffff021916905581600073ffffffffffffffffffffffffffffffffffffffff168273ffffffffffffffffffffffffffffffffffffffff167fddf252ad1be2c89b69c2b068fc378daa952ba7f163c4a11628f55a4df523b3ef60405160405180910390a461228381600084611cb4565b5050565b6000808273ffffffffffffffffffffffffffffffffffffffff163b119050919050565b6060600082036122f1576040518060400160405280600181526020017f30000000000000000000000000000000000000000000000000000000000000008152509050612405565b600082905060005b6000821461232357808061230c906131d0565b915050600a8261231c9190612f7d565b91506122f9565b60008167ffffffffffffffff81111561233f5761233e61297d565b5b6040519080825280601f01601f1916602001820160405280156123715781602001600182028036833780820191505090505b5090505b600085146123fe5760018261238a91906136de565b9150600a856123999190613aed565b60306123a59190613712565b60f81b8183815181106123bb576123ba613b1e565b5b60200101907effffffffffffffffffffffffffffffffffffffffffffffffffffffffffffff1916908160001a905350600a856123f79190612f7d565b9450612375565b8093505050505b919050565b50805461241690612b9a565b6000825580601f106124285750612447565b601f016020900490600052602060002090810190612446919061244a565b5b50565b5b8082111561246357600081600090555060010161244b565b5090565b600082825260208201905092915050565b7f43414e4e4f545f4449524543544c595f53454e445f414e595f56414c55450000600082015250565b60006124ae601e83612467565b91506124b982612478565b602082019050919050565b600060208201905081810360008301526124dd816124a1565b9050919050565b7f43414e4e4f545f4449524543544c595f53454e445f414e595f44415441000000600082015250565b600061251a601d83612467565b9150612525826124e4565b602082019050919050565b600060208201905081810360008301526125498161250d565b9050919050565b6000604051905090565b600080fd5b600080fd5b60007fffffffff0000000000000000000000000000000000000000000000000000000082169050919050565b61259981612564565b81146125a457600080fd5b50565b6000813590506125b681612590565b92915050565b6000602082840312156125d2576125d161255a565b5b60006125e0848285016125a7565b91505092915050565b60008115159050919050565b6125fe816125e9565b82525050565b600060208201905061261960008301846125f5565b92915050565b600081519050919050565b60005b8381101561264857808201518184015260208101905061262d565b83811115612657576000848401525b50505050565b6000601f19601f8301169050919050565b60006126798261261f565b6126838185612467565b935061269381856020860161262a565b61269c8161265d565b840191505092915050565b600060208201905081810360008301526126c1818461266e565b905092915050565b6000819050919050565b6126dc816126c9565b81146126e757600080fd5b50565b6000813590506126f9816126d3565b92915050565b6000602082840312156127155761271461255a565b5b6000612723848285016126ea565b91505092915050565b600073ffffffffffffffffffffffffffffffffffffffff82169050919050565b60006127578261272c565b9050919050565b6127678161274c565b82525050565b6000602082019050612782600083018461275e565b92915050565b6127918161274c565b811461279c57600080fd5b50565b6000813590506127ae81612788565b92915050565b600080604083850312156127cb576127ca61255a565b5b60006127d98582860161279f565b92505060206127ea858286016126ea565b9150509250929050565b6127fd816126c9565b82525050565b600060208201905061281860008301846127f4565b92915050565b6000806000606084860312156128375761283661255a565b5b60006128458682870161279f565b93505060206128568682870161279f565b9250506040612867868287016126ea565b9150509250925092565b600080604083850312156128885761288761255a565b5b6000612896858286016126ea565b92505060206128a7858286016126ea565b9150509250929050565b60006040820190506128c6600083018561275e565b6128d360208301846127f4565b9392505050565b6000602082840312156128f0576128ef61255a565b5b60006128fe8482850161279f565b91505092915050565b612910816125e9565b811461291b57600080fd5b50565b60008135905061292d81612907565b92915050565b6000806040838503121561294a5761294961255a565b5b60006129588582860161279f565b92505060206129698582860161291e565b9150509250929050565b600080fd5b600080fd5b7f4e487b7100000000000000000000000000000000000000000000000000000000600052604160045260246000fd5b6129b58261265d565b810181811067ffffffffffffffff821117156129d4576129d361297d565b5b80604052505050565b60006129e7612550565b90506129f382826129ac565b919050565b600067ffffffffffffffff821115612a1357612a1261297d565b5b612a1c8261265d565b9050602081019050919050565b82818337600083830152505050565b6000612a4b612a46846129f8565b6129dd565b905082815260208101848484011115612a6757612a66612978565b5b612a72848285612a29565b509392505050565b600082601f830112612a8f57612a8e612973565b5b8135612a9f848260208601612a38565b91505092915050565b60008060008060808587031215612ac257612ac161255a565b5b6000612ad08782880161279f565b9450506020612ae18782880161279f565b9350506040612af2878288016126ea565b925050606085013567ffffffffffffffff811115612b1357612b1261255f565b5b612b1f87828801612a7a565b91505092959194509250565b60008060408385031215612b4257612b4161255a565b5b6000612b508582860161279f565b9250506020612b618582860161279f565b9150509250929050565b7f4e487b7100000000000000000000000000000000000000000000000000000000600052602260045260246000fd5b60006002820490506001821680612bb257607f821691505b602082108103612bc557612bc4612b6b565b5b50919050565b7f4552433732313a20617070726f76616c20746f2063757272656e74206f776e6560008201527f7200000000000000000000000000000000000000000000000000000000000000602082015250565b6000612c27602183612467565b9150612c3282612bcb565b604082019050919050565b60006020820190508181036000830152612c5681612c1a565b9050919050565b7f4552433732313a20617070726f76652063616c6c6572206973206e6f7420746f60008201527f6b656e206f776e6572206e6f7220617070726f76656420666f7220616c6c0000602082015250565b6000612cb9603e83612467565b9150612cc482612c5d565b604082019050919050565b60006020820190508181036000830152612ce881612cac565b9050919050565b7f5265656e7472616e637947756172643a207265656e7472616e742063616c6c00600082015250565b6000612d25601f83612467565b9150612d3082612cef565b602082019050919050565b60006020820190508181036000830152612d5481612d18565b9050919050565b7f4d53475f56414c55455f444f45535f4e4f545f4d415443485f50524943450000600082015250565b6000612d91601e83612467565b9150612d9c82612d5b565b602082019050919050565b60006020820190508181036000830152612dc081612d84565b9050919050565b7f43414e4e4f545f4d494e545f4d4f52455f5448414e5f4d415800000000000000600082015250565b6000612dfd601983612467565b9150612e0882612dc7565b602082019050919050565b60006020820190508181036000830152612e2c81612df0565b9050919050565b7f4552433732313a2063616c6c6572206973206e6f7420746f6b656e206f776e6560008201527f72206e6f7220617070726f766564000000000000000000000000000000000000602082015250565b6000612e8f602e83612467565b9150612e9a82612e33565b604082019050919050565b60006020820190508181036000830152612ebe81612e82565b9050919050565b7f4e487b7100000000000000000000000000000000000000000000000000000000600052601160045260246000fd5b6000612eff826126c9565b9150612f0a836126c9565b9250817fffffffffffffffffffffffffffffffffffffffffffffffffffffffffffffffff0483118215151615612f4357612f42612ec5565b5b828202905092915050565b7f4e487b7100000000000000000000000000000000000000000000000000000000600052601260045260246000fd5b6000612f88826126c9565b9150612f93836126c9565b925082612fa357612fa2612f4e565b5b828204905092915050565b7f52656465656d20717565727920666f72206e6f6e6578697374656e7420746f6b60008201527f656e000000000000000000000000000000000000000000000000000000000000602082015250565b600061300a602283612467565b915061301582612fae565b604082019050919050565b6000602082019050818103600083015261303981612ffd565b9050919050565b7f596f7520617265206e6f7420746865206f776e6572206f66207468697320746f60008201527f6b656e0000000000000000000000000000000000000000000000000000000000602082015250565b600061309c602383612467565b91506130a782613040565b604082019050919050565b600060208201905081810360008301526130cb8161308f565b9050919050565b7f4552433732313a20696e76616c696420746f6b656e2049440000000000000000600082015250565b6000613108601883612467565b9150613113826130d2565b602082019050919050565b60006020820190508181036000830152613137816130fb565b9050919050565b7f4552433732313a2061646472657373207a65726f206973206e6f74206120766160008201527f6c6964206f776e65720000000000000000000000000000000000000000000000602082015250565b600061319a602983612467565b91506131a58261313e565b604082019050919050565b600060208201905081810360008301526131c98161318d565b9050919050565b60006131db826126c9565b91507fffffffffffffffffffffffffffffffffffffffffffffffffffffffffffffffff820361320d5761320c612ec5565b5b600182019050919050565b7f4f776e61626c653a206e6577206f776e657220697320746865207a65726f206160008201527f6464726573730000000000000000000000000000000000000000000000000000602082015250565b6000613274602683612467565b915061327f82613218565b604082019050919050565b600060208201905081810360008301526132a381613267565b9050919050565b7f45524337323155524953746f726167653a2055524920736574206f66206e6f6e60008201527f6578697374656e7420746f6b656e000000000000000000000000000000000000602082015250565b6000613306602e83612467565b9150613311826132aa565b604082019050919050565b60006020820190508181036000830152613335816132f9565b9050919050565b60008190508160005260206000209050919050565b60006020601f8301049050919050565b600082821b905092915050565b60006008830261339e7fffffffffffffffffffffffffffffffffffffffffffffffffffffffffffffffff82613361565b6133a88683613361565b95508019841693508086168417925050509392505050565b6000819050919050565b60006133e56133e06133db846126c9565b6133c0565b6126c9565b9050919050565b6000819050919050565b6133ff836133ca565b61341361340b826133ec565b84845461336e565b825550505050565b600090565b61342861341b565b6134338184846133f6565b505050565b5b818110156134575761344c600082613420565b600181019050613439565b5050565b601f82111561349c5761346d8161333c565b61347684613351565b81016020851015613485578190505b61349961349185613351565b830182613438565b50505b505050565b600082821c905092915050565b60006134bf600019846008026134a1565b1980831691505092915050565b60006134d883836134ae565b9150826002028217905092915050565b6134f18261261f565b67ffffffffffffffff81111561350a5761350961297d565b5b6135148254612b9a565b61351f82828561345b565b600060209050601f8311600181146135525760008415613540578287015190505b61354a85826134cc565b8655506135b2565b601f1984166135608661333c565b60005b8281101561358857848901518255600182019150602085019450602081019050613563565b868310156135a557848901516135a1601f8916826134ae565b8355505b6001600288020188555050505b505050505050565b7f4552433732313a207472616e736665722066726f6d20696e636f72726563742060008201527f6f776e6572000000000000000000000000000000000000000000000000000000602082015250565b6000613616602583612467565b9150613621826135ba565b604082019050919050565b6000602082019050818103600083015261364581613609565b9050919050565b7f4552433732313a207472616e7366657220746f20746865207a65726f2061646460008201527f7265737300000000000000000000000000000000000000000000000000000000602082015250565b60006136a8602483612467565b91506136b38261364c565b604082019050919050565b600060208201905081810360008301526136d78161369b565b9050919050565b60006136e9826126c9565b91506136f4836126c9565b92508282101561370757613706612ec5565b5b828203905092915050565b600061371d826126c9565b9150613728836126c9565b9250827fffffffffffffffffffffffffffffffffffffffffffffffffffffffffffffffff0382111561375d5761375c612ec5565b5b828201905092915050565b7f4f776e61626c653a2063616c6c6572206973206e6f7420746865206f776e6572600082015250565b600061379e602083612467565b91506137a982613768565b602082019050919050565b600060208201905081810360008301526137cd81613791565b9050919050565b7f4552433732313a20617070726f766520746f2063616c6c657200000000000000600082015250565b600061380a601983612467565b9150613815826137d4565b602082019050919050565b60006020820190508181036000830152613839816137fd565b9050919050565b7f4552433732313a207472616e7366657220746f206e6f6e20455243373231526560008201527f63656976657220696d706c656d656e7465720000000000000000000000000000602082015250565b600061389c603283612467565b91506138a782613840565b604082019050919050565b600060208201905081810360008301526138cb8161388f565b9050919050565b600081905092915050565b60006138e88261261f565b6138f281856138d2565b935061390281856020860161262a565b80840191505092915050565b600061391a82856138dd565b915061392682846138dd565b91508190509392505050565b600081519050919050565b600082825260208201905092915050565b600061395982613932565b613963818561393d565b935061397381856020860161262a565b61397c8161265d565b840191505092915050565b600060808201905061399c600083018761275e565b6139a9602083018661275e565b6139b660408301856127f4565b81810360608301526139c8818461394e565b905095945050505050565b6000815190506139e281612590565b92915050565b6000602082840312156139fe576139fd61255a565b5b6000613a0c848285016139d3565b91505092915050565b7f4552433732313a206d696e7420746f20746865207a65726f2061646472657373600082015250565b6000613a4b602083612467565b9150613a5682613a15565b602082019050919050565b60006020820190508181036000830152613a7a81613a3e565b9050919050565b7f4552433732313a20746f6b656e20616c7265616479206d696e74656400000000600082015250565b6000613ab7601c83612467565b9150613ac282613a81565b602082019050919050565b60006020820190508181036000830152613ae681613aaa565b9050919050565b6000613af8826126c9565b9150613b03836126c9565b925082613b1357613b12612f4e565b5b828206905092915050565b7f4e487b7100000000000000000000000000000000000000000000000000000000600052603260045260246000fdfea26469706673582212201f54f01ab29858d086b442ad8f17f77da9c45ff553adb786561b01e7d27ab8f764736f6c634300080f0033",
  "linkReferences": {},
  "deployedLinkReferences": {}
}